{
  "contractName": "EscrowNFT",
  "abi": [
    {
      "inputs": [],
      "stateMutability": "nonpayable",
      "type": "constructor"
    },
    {
      "anonymous": false,
      "inputs": [
        {
          "indexed": true,
          "internalType": "address",
          "name": "owner",
          "type": "address"
        },
        {
          "indexed": true,
          "internalType": "address",
          "name": "approved",
          "type": "address"
        },
        {
          "indexed": true,
          "internalType": "uint256",
          "name": "tokenId",
          "type": "uint256"
        }
      ],
      "name": "Approval",
      "type": "event"
    },
    {
      "anonymous": false,
      "inputs": [
        {
          "indexed": true,
          "internalType": "address",
          "name": "owner",
          "type": "address"
        },
        {
          "indexed": true,
          "internalType": "address",
          "name": "operator",
          "type": "address"
        },
        {
          "indexed": false,
          "internalType": "bool",
          "name": "approved",
          "type": "bool"
        }
      ],
      "name": "ApprovalForAll",
      "type": "event"
    },
    {
      "anonymous": false,
      "inputs": [
        {
          "indexed": true,
          "internalType": "address",
          "name": "previousOwner",
          "type": "address"
        },
        {
          "indexed": true,
          "internalType": "address",
          "name": "newOwner",
          "type": "address"
        }
      ],
      "name": "OwnershipTransferred",
      "type": "event"
    },
    {
      "anonymous": false,
      "inputs": [
        {
          "indexed": true,
          "internalType": "address",
          "name": "from",
          "type": "address"
        },
        {
          "indexed": true,
          "internalType": "address",
          "name": "to",
          "type": "address"
        },
        {
          "indexed": true,
          "internalType": "uint256",
          "name": "tokenId",
          "type": "uint256"
        }
      ],
      "name": "Transfer",
      "type": "event"
    },
    {
      "inputs": [
        {
          "internalType": "uint256",
          "name": "",
          "type": "uint256"
        }
      ],
      "name": "amount",
      "outputs": [
        {
          "internalType": "uint256",
          "name": "",
          "type": "uint256"
        }
      ],
      "stateMutability": "view",
      "type": "function"
    },
    {
      "inputs": [
        {
          "internalType": "address",
          "name": "to",
          "type": "address"
        },
        {
          "internalType": "uint256",
          "name": "tokenId",
          "type": "uint256"
        }
      ],
      "name": "approve",
      "outputs": [],
      "stateMutability": "nonpayable",
      "type": "function"
    },
    {
      "inputs": [
        {
          "internalType": "address",
          "name": "owner",
          "type": "address"
        }
      ],
      "name": "balanceOf",
      "outputs": [
        {
          "internalType": "uint256",
          "name": "",
          "type": "uint256"
        }
      ],
      "stateMutability": "view",
      "type": "function"
    },
    {
      "inputs": [
        {
          "internalType": "uint256",
          "name": "tokenId",
          "type": "uint256"
        }
      ],
      "name": "burn",
      "outputs": [],
      "stateMutability": "nonpayable",
      "type": "function"
    },
    {
      "inputs": [
        {
          "internalType": "uint256",
          "name": "tokenId",
          "type": "uint256"
        }
      ],
      "name": "getApproved",
      "outputs": [
        {
          "internalType": "address",
          "name": "",
          "type": "address"
        }
      ],
      "stateMutability": "view",
      "type": "function"
    },
    {
      "inputs": [
        {
          "internalType": "address",
          "name": "owner",
          "type": "address"
        },
        {
          "internalType": "address",
          "name": "operator",
          "type": "address"
        }
      ],
      "name": "isApprovedForAll",
      "outputs": [
        {
          "internalType": "bool",
          "name": "",
          "type": "bool"
        }
      ],
      "stateMutability": "view",
      "type": "function"
    },
    {
      "inputs": [
        {
          "internalType": "uint256",
          "name": "",
          "type": "uint256"
        }
      ],
      "name": "matureTime",
      "outputs": [
        {
          "internalType": "uint256",
          "name": "",
          "type": "uint256"
        }
      ],
      "stateMutability": "view",
      "type": "function"
    },
    {
      "inputs": [],
      "name": "name",
      "outputs": [
        {
          "internalType": "string",
          "name": "",
          "type": "string"
        }
      ],
      "stateMutability": "view",
      "type": "function"
    },
    {
      "inputs": [],
      "name": "owner",
      "outputs": [
        {
          "internalType": "address",
          "name": "",
          "type": "address"
        }
      ],
      "stateMutability": "view",
      "type": "function"
    },
    {
      "inputs": [
        {
          "internalType": "uint256",
          "name": "tokenId",
          "type": "uint256"
        }
      ],
      "name": "ownerOf",
      "outputs": [
        {
          "internalType": "address",
          "name": "",
          "type": "address"
        }
      ],
      "stateMutability": "view",
      "type": "function"
    },
    {
      "inputs": [],
      "name": "renounceOwnership",
      "outputs": [],
      "stateMutability": "nonpayable",
      "type": "function"
    },
    {
      "inputs": [
        {
          "internalType": "address",
          "name": "from",
          "type": "address"
        },
        {
          "internalType": "address",
          "name": "to",
          "type": "address"
        },
        {
          "internalType": "uint256",
          "name": "tokenId",
          "type": "uint256"
        }
      ],
      "name": "safeTransferFrom",
      "outputs": [],
      "stateMutability": "nonpayable",
      "type": "function"
    },
    {
      "inputs": [
        {
          "internalType": "address",
          "name": "from",
          "type": "address"
        },
        {
          "internalType": "address",
          "name": "to",
          "type": "address"
        },
        {
          "internalType": "uint256",
          "name": "tokenId",
          "type": "uint256"
        },
        {
          "internalType": "bytes",
          "name": "data",
          "type": "bytes"
        }
      ],
      "name": "safeTransferFrom",
      "outputs": [],
      "stateMutability": "nonpayable",
      "type": "function"
    },
    {
      "inputs": [
        {
          "internalType": "address",
          "name": "operator",
          "type": "address"
        },
        {
          "internalType": "bool",
          "name": "approved",
          "type": "bool"
        }
      ],
      "name": "setApprovalForAll",
      "outputs": [],
      "stateMutability": "nonpayable",
      "type": "function"
    },
    {
      "inputs": [],
      "name": "symbol",
      "outputs": [
        {
          "internalType": "string",
          "name": "",
          "type": "string"
        }
      ],
      "stateMutability": "view",
      "type": "function"
    },
    {
      "inputs": [
        {
          "internalType": "uint256",
          "name": "index",
          "type": "uint256"
        }
      ],
      "name": "tokenByIndex",
      "outputs": [
        {
          "internalType": "uint256",
          "name": "",
          "type": "uint256"
        }
      ],
      "stateMutability": "view",
      "type": "function"
    },
    {
      "inputs": [],
      "name": "tokenCounter",
      "outputs": [
        {
          "internalType": "uint256",
          "name": "",
          "type": "uint256"
        }
      ],
      "stateMutability": "view",
      "type": "function"
    },
    {
      "inputs": [
        {
          "internalType": "address",
          "name": "owner",
          "type": "address"
        },
        {
          "internalType": "uint256",
          "name": "index",
          "type": "uint256"
        }
      ],
      "name": "tokenOfOwnerByIndex",
      "outputs": [
        {
          "internalType": "uint256",
          "name": "",
          "type": "uint256"
        }
      ],
      "stateMutability": "view",
      "type": "function"
    },
    {
      "inputs": [
        {
          "internalType": "uint256",
          "name": "tokenId",
          "type": "uint256"
        }
      ],
      "name": "tokenURI",
      "outputs": [
        {
          "internalType": "string",
          "name": "",
          "type": "string"
        }
      ],
      "stateMutability": "view",
      "type": "function"
    },
    {
      "inputs": [],
      "name": "totalSupply",
      "outputs": [
        {
          "internalType": "uint256",
          "name": "",
          "type": "uint256"
        }
      ],
      "stateMutability": "view",
      "type": "function"
    },
    {
      "inputs": [
        {
          "internalType": "address",
          "name": "from",
          "type": "address"
        },
        {
          "internalType": "address",
          "name": "to",
          "type": "address"
        },
        {
          "internalType": "uint256",
          "name": "tokenId",
          "type": "uint256"
        }
      ],
      "name": "transferFrom",
      "outputs": [],
      "stateMutability": "nonpayable",
      "type": "function"
    },
    {
      "inputs": [
        {
          "internalType": "address",
          "name": "newOwner",
          "type": "address"
        }
      ],
      "name": "transferOwnership",
      "outputs": [],
      "stateMutability": "nonpayable",
      "type": "function"
    },
    {
      "inputs": [
        {
          "internalType": "address",
          "name": "_recipient",
          "type": "address"
        },
        {
          "internalType": "uint256",
          "name": "_amount",
          "type": "uint256"
        },
        {
          "internalType": "uint256",
          "name": "_matureTime",
          "type": "uint256"
        }
      ],
      "name": "mint",
      "outputs": [
        {
          "internalType": "uint256",
          "name": "",
          "type": "uint256"
        }
      ],
      "stateMutability": "nonpayable",
      "type": "function"
    },
    {
      "inputs": [
        {
          "internalType": "uint256",
          "name": "_tokenId",
          "type": "uint256"
        }
      ],
      "name": "tokenDetails",
      "outputs": [
        {
          "internalType": "uint256",
          "name": "",
          "type": "uint256"
        },
        {
          "internalType": "uint256",
          "name": "",
          "type": "uint256"
        }
      ],
      "stateMutability": "view",
      "type": "function"
    },
    {
      "inputs": [],
      "name": "contractAddress",
      "outputs": [
        {
          "internalType": "address",
          "name": "",
          "type": "address"
        }
      ],
      "stateMutability": "view",
      "type": "function"
    },
    {
      "inputs": [
        {
          "internalType": "bytes4",
          "name": "_interfaceId",
          "type": "bytes4"
        }
      ],
      "name": "supportsInterface",
      "outputs": [
        {
          "internalType": "bool",
          "name": "",
          "type": "bool"
        }
      ],
      "stateMutability": "view",
      "type": "function"
    }
  ],
  "bytecode": "0x60806040526000600b553480156200001657600080fd5b506040518060400160405280600981526020017f457363726f774e465400000000000000000000000000000000000000000000008152506040518060400160405280600581526020017f4553435257000000000000000000000000000000000000000000000000000000815250816000908162000094919062000417565b508060019081620000a6919062000417565b505050620000c9620000bd620000cf60201b60201c565b620000d760201b60201c565b620004fe565b600033905090565b6000600a60009054906101000a900473ffffffffffffffffffffffffffffffffffffffff16905081600a60006101000a81548173ffffffffffffffffffffffffffffffffffffffff021916908373ffffffffffffffffffffffffffffffffffffffff1602179055508173ffffffffffffffffffffffffffffffffffffffff168173ffffffffffffffffffffffffffffffffffffffff167f8be0079c531659141344cd1fd0a4f28419497f9722a3daafe3b4186f6b6457e060405160405180910390a35050565b600081519050919050565b7f4e487b7100000000000000000000000000000000000000000000000000000000600052604160045260246000fd5b7f4e487b7100000000000000000000000000000000000000000000000000000000600052602260045260246000fd5b600060028204905060018216806200021f57607f821691505b602082108103620002355762000234620001d7565b5b50919050565b60008190508160005260206000209050919050565b60006020601f8301049050919050565b600082821b905092915050565b6000600883026200029f7fffffffffffffffffffffffffffffffffffffffffffffffffffffffffffffffff8262000260565b620002ab868362000260565b95508019841693508086168417925050509392505050565b6000819050919050565b6000819050919050565b6000620002f8620002f2620002ec84620002c3565b620002cd565b620002c3565b9050919050565b6000819050919050565b6200031483620002d7565b6200032c6200032382620002ff565b8484546200026d565b825550505050565b600090565b6200034362000334565b6200035081848462000309565b505050565b5b8181101562000378576200036c60008262000339565b60018101905062000356565b5050565b601f821115620003c75762000391816200023b565b6200039c8462000250565b81016020851015620003ac578190505b620003c4620003bb8562000250565b83018262000355565b50505b505050565b600082821c905092915050565b6000620003ec60001984600802620003cc565b1980831691505092915050565b6000620004078383620003d9565b9150826002028217905092915050565b62000422826200019d565b67ffffffffffffffff8111156200043e576200043d620001a8565b5b6200044a825462000206565b620004578282856200037c565b600060209050601f8311600181146200048f57600084156200047a578287015190505b620004868582620003f9565b865550620004f6565b601f1984166200049f866200023b565b60005b82811015620004c957848901518255600182019150602085019450602081019050620004a2565b86831015620004e95784890151620004e5601f891682620003d9565b8355505b6001600288020188555050505b505050505050565b612f7a806200050e6000396000f3fe608060405234801561001057600080fd5b506004361061018e5760003560e01c806370a08231116100de578063b88d4fde11610097578063e985e9c511610071578063e985e9c5146104bb578063f2fde38b146104eb578063f6b4dfb414610507578063fc314e31146105255761018e565b8063b88d4fde14610451578063c87b56dd1461046d578063d082e3811461049d5761018e565b806370a082311461038f578063715018a6146103bf5780638b0d0258146103c95780638da5cb5b146103f957806395d89b4114610417578063a22cb465146104355761018e565b806323b872dd1161014b57806342842e0e1161012557806342842e0e146102f757806342966c68146103135780634f6ccce71461032f5780636352211e1461035f5761018e565b806323b872dd1461027b5780632f745c591461029757806337adc663146102c75761018e565b806301ffc9a71461019357806306fdde03146101c3578063081812fc146101e1578063095ea7b314610211578063156e29f61461022d57806318160ddd1461025d575b600080fd5b6101ad60048036038101906101a89190611e6c565b610556565b6040516101ba9190611eb4565b60405180910390f35b6101cb61055d565b6040516101d89190611f5f565b60405180910390f35b6101fb60048036038101906101f69190611fb7565b6105ef565b6040516102089190612025565b60405180910390f35b61022b6004803603810190610226919061206c565b610635565b005b610247600480360381019061024291906120ac565b61074c565b604051610254919061210e565b60405180910390f35b6102656107c6565b604051610272919061210e565b60405180910390f35b61029560048036038101906102909190612129565b6107d3565b005b6102b160048036038101906102ac919061206c565b610833565b6040516102be919061210e565b60405180910390f35b6102e160048036038101906102dc9190611fb7565b6108d8565b6040516102ee919061210e565b60405180910390f35b610311600480360381019061030c9190612129565b6108f0565b005b61032d60048036038101906103289190611fb7565b610910565b005b61034960048036038101906103449190611fb7565b61096c565b604051610356919061210e565b60405180910390f35b61037960048036038101906103749190611fb7565b6109dd565b6040516103869190612025565b60405180910390f35b6103a960048036038101906103a4919061217c565b610a63565b6040516103b6919061210e565b60405180910390f35b6103c7610b1a565b005b6103e360048036038101906103de9190611fb7565b610b2e565b6040516103f0919061210e565b60405180910390f35b610401610b46565b60405161040e9190612025565b60405180910390f35b61041f610b70565b60405161042c9190611f5f565b60405180910390f35b61044f600480360381019061044a91906121d5565b610c02565b005b61046b6004803603810190610466919061234a565b610c18565b005b61048760048036038101906104829190611fb7565b610c7a565b6040516104949190611f5f565b60405180910390f35b6104a5610ce2565b6040516104b2919061210e565b60405180910390f35b6104d560048036038101906104d091906123cd565b610ce8565b6040516104e29190611eb4565b60405180910390f35b6105056004803603810190610500919061217c565b610d7c565b005b61050f610dff565b60405161051c9190612025565b60405180910390f35b61053f600480360381019061053a9190611fb7565b610e07565b60405161054d92919061240d565b60405180910390f35b6000919050565b60606000805461056c90612465565b80601f016020809104026020016040519081016040528092919081815260200182805461059890612465565b80156105e55780601f106105ba576101008083540402835291602001916105e5565b820191906000526020600020905b8154815290600101906020018083116105c857829003601f168201915b5050505050905090565b60006105fa82610e83565b6004600083815260200190815260200160002060009054906101000a900473ffffffffffffffffffffffffffffffffffffffff169050919050565b6000610640826109dd565b90508073ffffffffffffffffffffffffffffffffffffffff168373ffffffffffffffffffffffffffffffffffffffff16036106b0576040517f08c379a00000000000000000000000000000000000000000000000000000000081526004016106a790612508565b60405180910390fd5b8073ffffffffffffffffffffffffffffffffffffffff166106cf610ece565b73ffffffffffffffffffffffffffffffffffffffff1614806106fe57506106fd816106f8610ece565b610ce8565b5b61073d576040517f08c379a00000000000000000000000000000000000000000000000000000000081526004016107349061259a565b60405180910390fd5b6107478383610ed6565b505050565b6000610756610f8f565b61076284600b5461100d565b82600c6000600b5481526020019081526020016000208190555081600d6000600b54815260200190815260200160002081905550600b60008154809291906107a9906125e9565b91905055506001600b546107bd9190612631565b90509392505050565b6000600880549050905090565b6107e46107de610ece565b8261122a565b610823576040517f08c379a000000000000000000000000000000000000000000000000000000000815260040161081a906126d7565b60405180910390fd5b61082e8383836112bf565b505050565b600061083e83610a63565b821061087f576040517f08c379a000000000000000000000000000000000000000000000000000000000815260040161087690612769565b60405180910390fd5b600660008473ffffffffffffffffffffffffffffffffffffffff1673ffffffffffffffffffffffffffffffffffffffff168152602001908152602001600020600083815260200190815260200160002054905092915050565b600d6020528060005260406000206000915090505481565b61090b83838360405180602001604052806000815250610c18565b505050565b61092161091b610ece565b8261122a565b610960576040517f08c379a0000000000000000000000000000000000000000000000000000000008152600401610957906126d7565b60405180910390fd5b610969816115b8565b50565b60006109766107c6565b82106109b7576040517f08c379a00000000000000000000000000000000000000000000000000000000081526004016109ae906127fb565b60405180910390fd5b600882815481106109cb576109ca61281b565b5b90600052602060002001549050919050565b6000806109e983611706565b9050600073ffffffffffffffffffffffffffffffffffffffff168173ffffffffffffffffffffffffffffffffffffffff1603610a5a576040517f08c379a0000000000000000000000000000000000000000000000000000000008152600401610a5190612896565b60405180910390fd5b80915050919050565b60008073ffffffffffffffffffffffffffffffffffffffff168273ffffffffffffffffffffffffffffffffffffffff1603610ad3576040517f08c379a0000000000000000000000000000000000000000000000000000000008152600401610aca90612928565b60405180910390fd5b600360008373ffffffffffffffffffffffffffffffffffffffff1673ffffffffffffffffffffffffffffffffffffffff168152602001908152602001600020549050919050565b610b22610f8f565b610b2c6000611743565b565b600c6020528060005260406000206000915090505481565b6000600a60009054906101000a900473ffffffffffffffffffffffffffffffffffffffff16905090565b606060018054610b7f90612465565b80601f0160208091040260200160405190810160405280929190818152602001828054610bab90612465565b8015610bf85780601f10610bcd57610100808354040283529160200191610bf8565b820191906000526020600020905b815481529060010190602001808311610bdb57829003601f168201915b5050505050905090565b610c14610c0d610ece565b8383611809565b5050565b610c29610c23610ece565b8361122a565b610c68576040517f08c379a0000000000000000000000000000000000000000000000000000000008152600401610c5f906126d7565b60405180910390fd5b610c7484848484611975565b50505050565b6060610c8582610e83565b6000610c8f6119d1565b90506000815111610caf5760405180602001604052806000815250610cda565b80610cb9846119e8565b604051602001610cca929190612984565b6040516020818303038152906040525b915050919050565b600b5481565b6000600560008473ffffffffffffffffffffffffffffffffffffffff1673ffffffffffffffffffffffffffffffffffffffff16815260200190815260200160002060008373ffffffffffffffffffffffffffffffffffffffff1673ffffffffffffffffffffffffffffffffffffffff16815260200190815260200160002060009054906101000a900460ff16905092915050565b610d84610f8f565b600073ffffffffffffffffffffffffffffffffffffffff168173ffffffffffffffffffffffffffffffffffffffff1603610df3576040517f08c379a0000000000000000000000000000000000000000000000000000000008152600401610dea90612a1a565b60405180910390fd5b610dfc81611743565b50565b600030905090565b600080610e1383611ab6565b610e52576040517f08c379a0000000000000000000000000000000000000000000000000000000008152600401610e4990612aac565b60405180910390fd5b600c600084815260200190815260200160002054600d60008581526020019081526020016000205491509150915091565b610e8c81611ab6565b610ecb576040517f08c379a0000000000000000000000000000000000000000000000000000000008152600401610ec290612896565b60405180910390fd5b50565b600033905090565b816004600083815260200190815260200160002060006101000a81548173ffffffffffffffffffffffffffffffffffffffff021916908373ffffffffffffffffffffffffffffffffffffffff160217905550808273ffffffffffffffffffffffffffffffffffffffff16610f49836109dd565b73ffffffffffffffffffffffffffffffffffffffff167f8c5be1e5ebec7d5bd14f71427d1e84f3dd0314c0f7b2291e5b200ac8c7c3b92560405160405180910390a45050565b610f97610ece565b73ffffffffffffffffffffffffffffffffffffffff16610fb5610b46565b73ffffffffffffffffffffffffffffffffffffffff161461100b576040517f08c379a000000000000000000000000000000000000000000000000000000000815260040161100290612b18565b60405180910390fd5b565b600073ffffffffffffffffffffffffffffffffffffffff168273ffffffffffffffffffffffffffffffffffffffff160361107c576040517f08c379a000000000000000000000000000000000000000000000000000000000815260040161107390612b84565b60405180910390fd5b61108581611ab6565b156110c5576040517f08c379a00000000000000000000000000000000000000000000000000000000081526004016110bc90612bf0565b60405180910390fd5b6110d3600083836001611af7565b6110dc81611ab6565b1561111c576040517f08c379a000000000000000000000000000000000000000000000000000000000815260040161111390612bf0565b60405180910390fd5b6001600360008473ffffffffffffffffffffffffffffffffffffffff1673ffffffffffffffffffffffffffffffffffffffff16815260200190815260200160002060008282540192505081905550816002600083815260200190815260200160002060006101000a81548173ffffffffffffffffffffffffffffffffffffffff021916908373ffffffffffffffffffffffffffffffffffffffff160217905550808273ffffffffffffffffffffffffffffffffffffffff16600073ffffffffffffffffffffffffffffffffffffffff167fddf252ad1be2c89b69c2b068fc378daa952ba7f163c4a11628f55a4df523b3ef60405160405180910390a4611226600083836001611afd565b5050565b600080611236836109dd565b90508073ffffffffffffffffffffffffffffffffffffffff168473ffffffffffffffffffffffffffffffffffffffff16148061127857506112778185610ce8565b5b806112b657508373ffffffffffffffffffffffffffffffffffffffff1661129e846105ef565b73ffffffffffffffffffffffffffffffffffffffff16145b91505092915050565b8273ffffffffffffffffffffffffffffffffffffffff166112df826109dd565b73ffffffffffffffffffffffffffffffffffffffff1614611335576040517f08c379a000000000000000000000000000000000000000000000000000000000815260040161132c90612c82565b60405180910390fd5b600073ffffffffffffffffffffffffffffffffffffffff168273ffffffffffffffffffffffffffffffffffffffff16036113a4576040517f08c379a000000000000000000000000000000000000000000000000000000000815260040161139b90612d14565b60405180910390fd5b6113b18383836001611af7565b8273ffffffffffffffffffffffffffffffffffffffff166113d1826109dd565b73ffffffffffffffffffffffffffffffffffffffff1614611427576040517f08c379a000000000000000000000000000000000000000000000000000000000815260040161141e90612c82565b60405180910390fd5b6004600082815260200190815260200160002060006101000a81549073ffffffffffffffffffffffffffffffffffffffff02191690556001600360008573ffffffffffffffffffffffffffffffffffffffff1673ffffffffffffffffffffffffffffffffffffffff168152602001908152602001600020600082825403925050819055506001600360008473ffffffffffffffffffffffffffffffffffffffff1673ffffffffffffffffffffffffffffffffffffffff16815260200190815260200160002060008282540192505081905550816002600083815260200190815260200160002060006101000a81548173ffffffffffffffffffffffffffffffffffffffff021916908373ffffffffffffffffffffffffffffffffffffffff160217905550808273ffffffffffffffffffffffffffffffffffffffff168473ffffffffffffffffffffffffffffffffffffffff167fddf252ad1be2c89b69c2b068fc378daa952ba7f163c4a11628f55a4df523b3ef60405160405180910390a46115b38383836001611afd565b505050565b60006115c3826109dd565b90506115d3816000846001611af7565b6115dc826109dd565b90506004600083815260200190815260200160002060006101000a81549073ffffffffffffffffffffffffffffffffffffffff02191690556001600360008373ffffffffffffffffffffffffffffffffffffffff1673ffffffffffffffffffffffffffffffffffffffff168152602001908152602001600020600082825403925050819055506002600083815260200190815260200160002060006101000a81549073ffffffffffffffffffffffffffffffffffffffff021916905581600073ffffffffffffffffffffffffffffffffffffffff168273ffffffffffffffffffffffffffffffffffffffff167fddf252ad1be2c89b69c2b068fc378daa952ba7f163c4a11628f55a4df523b3ef60405160405180910390a4611702816000846001611afd565b5050565b60006002600083815260200190815260200160002060009054906101000a900473ffffffffffffffffffffffffffffffffffffffff169050919050565b6000600a60009054906101000a900473ffffffffffffffffffffffffffffffffffffffff16905081600a60006101000a81548173ffffffffffffffffffffffffffffffffffffffff021916908373ffffffffffffffffffffffffffffffffffffffff1602179055508173ffffffffffffffffffffffffffffffffffffffff168173ffffffffffffffffffffffffffffffffffffffff167f8be0079c531659141344cd1fd0a4f28419497f9722a3daafe3b4186f6b6457e060405160405180910390a35050565b8173ffffffffffffffffffffffffffffffffffffffff168373ffffffffffffffffffffffffffffffffffffffff1603611877576040517f08c379a000000000000000000000000000000000000000000000000000000000815260040161186e90612d80565b60405180910390fd5b80600560008573ffffffffffffffffffffffffffffffffffffffff1673ffffffffffffffffffffffffffffffffffffffff16815260200190815260200160002060008473ffffffffffffffffffffffffffffffffffffffff1673ffffffffffffffffffffffffffffffffffffffff16815260200190815260200160002060006101000a81548160ff0219169083151502179055508173ffffffffffffffffffffffffffffffffffffffff168373ffffffffffffffffffffffffffffffffffffffff167f17307eab39ab6107e8899845ad3d59bd9653f200f220920489ca2b5937696c31836040516119689190611eb4565b60405180910390a3505050565b6119808484846112bf565b61198c84848484611b03565b6119cb576040517f08c379a00000000000000000000000000000000000000000000000000000000081526004016119c290612e12565b60405180910390fd5b50505050565b606060405180602001604052806000815250905090565b6060600060016119f784611c8a565b01905060008167ffffffffffffffff811115611a1657611a1561221f565b5b6040519080825280601f01601f191660200182016040528015611a485781602001600182028036833780820191505090505b509050600082602001820190505b600115611aab578080600190039150507f3031323334353637383961626364656600000000000000000000000000000000600a86061a8153600a8581611a9f57611a9e612e32565b5b04945060008503611a56575b819350505050919050565b60008073ffffffffffffffffffffffffffffffffffffffff16611ad883611706565b73ffffffffffffffffffffffffffffffffffffffff1614159050919050565b50505050565b50505050565b6000611b248473ffffffffffffffffffffffffffffffffffffffff16611ddd565b15611c7d578373ffffffffffffffffffffffffffffffffffffffff1663150b7a02611b4d610ece565b8786866040518563ffffffff1660e01b8152600401611b6f9493929190612eb6565b6020604051808303816000875af1925050508015611bab57506040513d601f19601f82011682018060405250810190611ba89190612f17565b60015b611c2d573d8060008114611bdb576040519150601f19603f3d011682016040523d82523d6000602084013e611be0565b606091505b506000815103611c25576040517f08c379a0000000000000000000000000000000000000000000000000000000008152600401611c1c90612e12565b60405180910390fd5b805181602001fd5b63150b7a0260e01b7bffffffffffffffffffffffffffffffffffffffffffffffffffffffff1916817bffffffffffffffffffffffffffffffffffffffffffffffffffffffff191614915050611c82565b600190505b949350505050565b600080600090507a184f03e93ff9f4daa797ed6e38ed64bf6a1f0100000000000000008310611ce8577a184f03e93ff9f4daa797ed6e38ed64bf6a1f0100000000000000008381611cde57611cdd612e32565b5b0492506040810190505b6d04ee2d6d415b85acef81000000008310611d25576d04ee2d6d415b85acef81000000008381611d1b57611d1a612e32565b5b0492506020810190505b662386f26fc100008310611d5457662386f26fc100008381611d4a57611d49612e32565b5b0492506010810190505b6305f5e1008310611d7d576305f5e1008381611d7357611d72612e32565b5b0492506008810190505b6127108310611da2576127108381611d9857611d97612e32565b5b0492506004810190505b60648310611dc55760648381611dbb57611dba612e32565b5b0492506002810190505b600a8310611dd4576001810190505b80915050919050565b6000808273ffffffffffffffffffffffffffffffffffffffff163b119050919050565b6000604051905090565b600080fd5b600080fd5b60007fffffffff0000000000000000000000000000000000000000000000000000000082169050919050565b611e4981611e14565b8114611e5457600080fd5b50565b600081359050611e6681611e40565b92915050565b600060208284031215611e8257611e81611e0a565b5b6000611e9084828501611e57565b91505092915050565b60008115159050919050565b611eae81611e99565b82525050565b6000602082019050611ec96000830184611ea5565b92915050565b600081519050919050565b600082825260208201905092915050565b60005b83811015611f09578082015181840152602081019050611eee565b60008484015250505050565b6000601f19601f8301169050919050565b6000611f3182611ecf565b611f3b8185611eda565b9350611f4b818560208601611eeb565b611f5481611f15565b840191505092915050565b60006020820190508181036000830152611f798184611f26565b905092915050565b6000819050919050565b611f9481611f81565b8114611f9f57600080fd5b50565b600081359050611fb181611f8b565b92915050565b600060208284031215611fcd57611fcc611e0a565b5b6000611fdb84828501611fa2565b91505092915050565b600073ffffffffffffffffffffffffffffffffffffffff82169050919050565b600061200f82611fe4565b9050919050565b61201f81612004565b82525050565b600060208201905061203a6000830184612016565b92915050565b61204981612004565b811461205457600080fd5b50565b60008135905061206681612040565b92915050565b6000806040838503121561208357612082611e0a565b5b600061209185828601612057565b92505060206120a285828601611fa2565b9150509250929050565b6000806000606084860312156120c5576120c4611e0a565b5b60006120d386828701612057565b93505060206120e486828701611fa2565b92505060406120f586828701611fa2565b9150509250925092565b61210881611f81565b82525050565b600060208201905061212360008301846120ff565b92915050565b60008060006060848603121561214257612141611e0a565b5b600061215086828701612057565b935050602061216186828701612057565b925050604061217286828701611fa2565b9150509250925092565b60006020828403121561219257612191611e0a565b5b60006121a084828501612057565b91505092915050565b6121b281611e99565b81146121bd57600080fd5b50565b6000813590506121cf816121a9565b92915050565b600080604083850312156121ec576121eb611e0a565b5b60006121fa85828601612057565b925050602061220b858286016121c0565b9150509250929050565b600080fd5b600080fd5b7f4e487b7100000000000000000000000000000000000000000000000000000000600052604160045260246000fd5b61225782611f15565b810181811067ffffffffffffffff821117156122765761227561221f565b5b80604052505050565b6000612289611e00565b9050612295828261224e565b919050565b600067ffffffffffffffff8211156122b5576122b461221f565b5b6122be82611f15565b9050602081019050919050565b82818337600083830152505050565b60006122ed6122e88461229a565b61227f565b9050828152602081018484840111156123095761230861221a565b5b6123148482856122cb565b509392505050565b600082601f83011261233157612330612215565b5b81356123418482602086016122da565b91505092915050565b6000806000806080858703121561236457612363611e0a565b5b600061237287828801612057565b945050602061238387828801612057565b935050604061239487828801611fa2565b925050606085013567ffffffffffffffff8111156123b5576123b4611e0f565b5b6123c18782880161231c565b91505092959194509250565b600080604083850312156123e4576123e3611e0a565b5b60006123f285828601612057565b925050602061240385828601612057565b9150509250929050565b600060408201905061242260008301856120ff565b61242f60208301846120ff565b9392505050565b7f4e487b7100000000000000000000000000000000000000000000000000000000600052602260045260246000fd5b6000600282049050600182168061247d57607f821691505b6020821081036124905761248f612436565b5b50919050565b7f4552433732313a20617070726f76616c20746f2063757272656e74206f776e6560008201527f7200000000000000000000000000000000000000000000000000000000000000602082015250565b60006124f2602183611eda565b91506124fd82612496565b604082019050919050565b60006020820190508181036000830152612521816124e5565b9050919050565b7f4552433732313a20617070726f76652063616c6c6572206973206e6f7420746f60008201527f6b656e206f776e6572206f7220617070726f76656420666f7220616c6c000000602082015250565b6000612584603d83611eda565b915061258f82612528565b604082019050919050565b600060208201905081810360008301526125b381612577565b9050919050565b7f4e487b7100000000000000000000000000000000000000000000000000000000600052601160045260246000fd5b60006125f482611f81565b91507fffffffffffffffffffffffffffffffffffffffffffffffffffffffffffffffff8203612626576126256125ba565b5b600182019050919050565b600061263c82611f81565b915061264783611f81565b925082820390508181111561265f5761265e6125ba565b5b92915050565b7f4552433732313a2063616c6c6572206973206e6f7420746f6b656e206f776e6560008201527f72206f7220617070726f76656400000000000000000000000000000000000000602082015250565b60006126c1602d83611eda565b91506126cc82612665565b604082019050919050565b600060208201905081810360008301526126f0816126b4565b9050919050565b7f455243373231456e756d657261626c653a206f776e657220696e646578206f7560008201527f74206f6620626f756e6473000000000000000000000000000000000000000000602082015250565b6000612753602b83611eda565b915061275e826126f7565b604082019050919050565b6000602082019050818103600083015261278281612746565b9050919050565b7f455243373231456e756d657261626c653a20676c6f62616c20696e646578206f60008201527f7574206f6620626f756e64730000000000000000000000000000000000000000602082015250565b60006127e5602c83611eda565b91506127f082612789565b604082019050919050565b60006020820190508181036000830152612814816127d8565b9050919050565b7f4e487b7100000000000000000000000000000000000000000000000000000000600052603260045260246000fd5b7f4552433732313a20696e76616c696420746f6b656e2049440000000000000000600082015250565b6000612880601883611eda565b915061288b8261284a565b602082019050919050565b600060208201905081810360008301526128af81612873565b9050919050565b7f4552433732313a2061646472657373207a65726f206973206e6f74206120766160008201527f6c6964206f776e65720000000000000000000000000000000000000000000000602082015250565b6000612912602983611eda565b915061291d826128b6565b604082019050919050565b6000602082019050818103600083015261294181612905565b9050919050565b600081905092915050565b600061295e82611ecf565b6129688185612948565b9350612978818560208601611eeb565b80840191505092915050565b60006129908285612953565b915061299c8284612953565b91508190509392505050565b7f4f776e61626c653a206e6577206f776e657220697320746865207a65726f206160008201527f6464726573730000000000000000000000000000000000000000000000000000602082015250565b6000612a04602683611eda565b9150612a0f826129a8565b604082019050919050565b60006020820190508181036000830152612a33816129f7565b9050919050565b7f457363726f774e46543a20517565727920666f72206e6f6e6578697374656e7460008201527f20746f6b656e0000000000000000000000000000000000000000000000000000602082015250565b6000612a96602683611eda565b9150612aa182612a3a565b604082019050919050565b60006020820190508181036000830152612ac581612a89565b9050919050565b7f4f776e61626c653a2063616c6c6572206973206e6f7420746865206f776e6572600082015250565b6000612b02602083611eda565b9150612b0d82612acc565b602082019050919050565b60006020820190508181036000830152612b3181612af5565b9050919050565b7f4552433732313a206d696e7420746f20746865207a65726f2061646472657373600082015250565b6000612b6e602083611eda565b9150612b7982612b38565b602082019050919050565b60006020820190508181036000830152612b9d81612b61565b9050919050565b7f4552433732313a20746f6b656e20616c7265616479206d696e74656400000000600082015250565b6000612bda601c83611eda565b9150612be582612ba4565b602082019050919050565b60006020820190508181036000830152612c0981612bcd565b9050919050565b7f4552433732313a207472616e736665722066726f6d20696e636f72726563742060008201527f6f776e6572000000000000000000000000000000000000000000000000000000602082015250565b6000612c6c602583611eda565b9150612c7782612c10565b604082019050919050565b60006020820190508181036000830152612c9b81612c5f565b9050919050565b7f4552433732313a207472616e7366657220746f20746865207a65726f2061646460008201527f7265737300000000000000000000000000000000000000000000000000000000602082015250565b6000612cfe602483611eda565b9150612d0982612ca2565b604082019050919050565b60006020820190508181036000830152612d2d81612cf1565b9050919050565b7f4552433732313a20617070726f766520746f2063616c6c657200000000000000600082015250565b6000612d6a601983611eda565b9150612d7582612d34565b602082019050919050565b60006020820190508181036000830152612d9981612d5d565b9050919050565b7f4552433732313a207472616e7366657220746f206e6f6e20455243373231526560008201527f63656976657220696d706c656d656e7465720000000000000000000000000000602082015250565b6000612dfc603283611eda565b9150612e0782612da0565b604082019050919050565b60006020820190508181036000830152612e2b81612def565b9050919050565b7f4e487b7100000000000000000000000000000000000000000000000000000000600052601260045260246000fd5b600081519050919050565b600082825260208201905092915050565b6000612e8882612e61565b612e928185612e6c565b9350612ea2818560208601611eeb565b612eab81611f15565b840191505092915050565b6000608082019050612ecb6000830187612016565b612ed86020830186612016565b612ee560408301856120ff565b8181036060830152612ef78184612e7d565b905095945050505050565b600081519050612f1181611e40565b92915050565b600060208284031215612f2d57612f2c611e0a565b5b6000612f3b84828501612f02565b9150509291505056fea26469706673582212201d59dad1c46a3254edfd19771fd074186e514bc494243457f945984503e8c0d464736f6c63430008110033",
  "immutableReferences": {},
  "source": "// SPDX-License-Identifier: MIT\r\npragma solidity ^0.8.17;\r\n\r\nimport \"@openzeppelin/contracts/access/Ownable.sol\";\r\nimport \"@openzeppelin/contracts/token/ERC721/extensions/ERC721Burnable.sol\";\r\nimport \"@openzeppelin/contracts/token/ERC721/extensions/ERC721Enumerable.sol\";\r\n\r\ncontract EscrowNFT is ERC721Burnable, ERC721Enumerable, Ownable {\r\n    uint256 public tokenCounter = 0;\r\n\r\n    // NFT data\r\n    mapping(uint256 => uint256) public amount;\r\n    mapping(uint256 => uint256) public matureTime;\r\n\r\n    constructor() ERC721(\"EscrowNFT\", \"ESCRW\") {\r\n    }\r\n\r\n    function mint(address _recipient, uint256 _amount, uint256 _matureTime) public onlyOwner returns (uint256) {\r\n        _mint(_recipient, tokenCounter);\r\n\r\n        // set values\r\n        amount[tokenCounter] = _amount;\r\n        matureTime[tokenCounter] = _matureTime;\r\n\r\n        // increment counter\r\n        tokenCounter++;\r\n\r\n        return tokenCounter - 1; // return ID\r\n    }\r\n\r\n    function tokenDetails(uint256 _tokenId) public view returns (uint256, uint256) {\r\n        require(_exists(_tokenId), \"EscrowNFT: Query for nonexistent token\");\r\n\r\n        return (amount[_tokenId], matureTime[_tokenId]);\r\n    }\r\n\r\n     function contractAddress() public view returns (address) {\r\n        return address(this);\r\n    }\r\n\r\n    function _beforeTokenTransfer(address _from, address _to, uint256 firstTokenId, uint256 batchSize) internal override(ERC721, ERC721Enumerable) {}\r\n\r\n    function supportsInterface(bytes4 _interfaceId) public view virtual override(ERC721, ERC721Enumerable) returns (bool) { }\r\n}\r\n",
  "sourcePath": "D:\\Blockchain\\Marketplace\\NFT Escrow\\contracts\\contract.sol",
  "compiler": {
    "name": "solc",
    "version": "0.8.17+commit.8df45f5f.Emscripten.clang"
  },
  "schemaVersion": "3.4.13",
  "updatedAt": "2023-03-07T13:38:29.125Z",
  "devdoc": {
    "kind": "dev",
    "methods": {
      "approve(address,uint256)": {
        "details": "See {IERC721-approve}."
      },
      "balanceOf(address)": {
        "details": "See {IERC721-balanceOf}."
      },
      "burn(uint256)": {
        "details": "Burns `tokenId`. See {ERC721-_burn}. Requirements: - The caller must own `tokenId` or be an approved operator."
      },
      "getApproved(uint256)": {
        "details": "See {IERC721-getApproved}."
      },
      "isApprovedForAll(address,address)": {
        "details": "See {IERC721-isApprovedForAll}."
      },
      "name()": {
        "details": "See {IERC721Metadata-name}."
      },
      "owner()": {
        "details": "Returns the address of the current owner."
      },
      "ownerOf(uint256)": {
        "details": "See {IERC721-ownerOf}."
      },
      "renounceOwnership()": {
        "details": "Leaves the contract without owner. It will not be possible to call `onlyOwner` functions anymore. Can only be called by the current owner. NOTE: Renouncing ownership will leave the contract without an owner, thereby removing any functionality that is only available to the owner."
      },
      "safeTransferFrom(address,address,uint256)": {
        "details": "See {IERC721-safeTransferFrom}."
      },
      "safeTransferFrom(address,address,uint256,bytes)": {
        "details": "See {IERC721-safeTransferFrom}."
      },
      "setApprovalForAll(address,bool)": {
        "details": "See {IERC721-setApprovalForAll}."
      },
      "symbol()": {
        "details": "See {IERC721Metadata-symbol}."
      },
      "tokenByIndex(uint256)": {
        "details": "See {IERC721Enumerable-tokenByIndex}."
      },
      "tokenOfOwnerByIndex(address,uint256)": {
        "details": "See {IERC721Enumerable-tokenOfOwnerByIndex}."
      },
      "tokenURI(uint256)": {
        "details": "See {IERC721Metadata-tokenURI}."
      },
      "totalSupply()": {
        "details": "See {IERC721Enumerable-totalSupply}."
      },
      "transferFrom(address,address,uint256)": {
        "details": "See {IERC721-transferFrom}."
      },
      "transferOwnership(address)": {
        "details": "Transfers ownership of the contract to a new account (`newOwner`). Can only be called by the current owner."
      }
    },
    "version": 1
  },
  "userdoc": {
    "kind": "user",
    "methods": {},
    "version": 1
  }
}